{
  "_format": "hh-sol-artifact-1",
  "contractName": "IncidentManager",
  "sourceName": "contracts/IncidentContract.sol",
  "abi": [
    {
      "anonymous": false,
      "inputs": [
        {
          "indexed": false,
          "internalType": "uint256",
          "name": "id",
          "type": "uint256"
        },
        {
          "indexed": false,
          "internalType": "string",
          "name": "description",
          "type": "string"
        },
        {
          "indexed": false,
          "internalType": "address",
          "name": "reportedBy",
          "type": "address"
        },
        {
          "indexed": false,
          "internalType": "uint256",
          "name": "timestamp",
          "type": "uint256"
        }
      ],
      "name": "IncidentReported",
      "type": "event"
    },
    {
      "inputs": [
        {
          "internalType": "uint256",
          "name": "_id",
          "type": "uint256"
        }
      ],
      "name": "getIncident",
      "outputs": [
        {
          "internalType": "uint256",
          "name": "",
          "type": "uint256"
        },
        {
          "internalType": "string",
          "name": "",
          "type": "string"
        },
        {
          "internalType": "address",
          "name": "",
          "type": "address"
        },
        {
          "internalType": "uint256",
          "name": "",
          "type": "uint256"
        }
      ],
      "stateMutability": "view",
      "type": "function"
    },
    {
      "inputs": [],
      "name": "incidentCounter",
      "outputs": [
        {
          "internalType": "uint256",
          "name": "",
          "type": "uint256"
        }
      ],
      "stateMutability": "view",
      "type": "function"
    },
    {
      "inputs": [
        {
          "internalType": "uint256",
          "name": "",
          "type": "uint256"
        }
      ],
      "name": "incidents",
      "outputs": [
        {
          "internalType": "uint256",
          "name": "id",
          "type": "uint256"
        },
        {
          "internalType": "string",
          "name": "description",
          "type": "string"
        },
        {
          "internalType": "address",
          "name": "reportedBy",
          "type": "address"
        },
        {
          "internalType": "uint256",
          "name": "timestamp",
          "type": "uint256"
        }
      ],
      "stateMutability": "view",
      "type": "function"
    },
    {
      "inputs": [
        {
          "internalType": "string",
          "name": "_description",
          "type": "string"
        }
      ],
      "name": "reportIncident",
      "outputs": [],
      "stateMutability": "nonpayable",
      "type": "function"
    }
  ],
  "bytecode": "0x6080604052348015600f57600080fd5b50610af98061001f6000396000f3fe608060405234801561001057600080fd5b506004361061004c5760003560e01c80631c4077d9146100515780633e9c1dac1461006d5780639578615e1461008b578063a6c6a8f3146100be575b600080fd5b61006b6004803603810190610066919061058c565b6100f1565b005b61007561020c565b60405161008291906105ee565b60405180910390f35b6100a560048036038101906100a09190610635565b610212565b6040516100b59493929190610722565b60405180910390f35b6100d860048036038101906100d39190610635565b61035a565b6040516100e89493929190610722565b60405180910390f35b600160008154809291906101049061079d565b9190505550604051806080016040528060015481526020018281526020013373ffffffffffffffffffffffffffffffffffffffff16815260200142815250600080600154815260200190815260200160002060008201518160000155602082015181600101908161017591906109f1565b5060408201518160020160006101000a81548173ffffffffffffffffffffffffffffffffffffffff021916908373ffffffffffffffffffffffffffffffffffffffff160217905550606082015181600301559050507fae643f6e054de1b54c8f7fbb30a86bbd12b5d8eaab1c0d85e885fd37ee9b9a096001548233426040516102019493929190610722565b60405180910390a150565b60015481565b6000606060008060008060008781526020019081526020016000206040518060800160405290816000820154815260200160018201805461025290610814565b80601f016020809104026020016040519081016040528092919081815260200182805461027e90610814565b80156102cb5780601f106102a0576101008083540402835291602001916102cb565b820191906000526020600020905b8154815290600101906020018083116102ae57829003601f168201915b505050505081526020016002820160009054906101000a900473ffffffffffffffffffffffffffffffffffffffff1673ffffffffffffffffffffffffffffffffffffffff1673ffffffffffffffffffffffffffffffffffffffff168152602001600382015481525050905080600001518160200151826040015183606001519450945094509450509193509193565b600060205280600052604060002060009150905080600001549080600101805461038390610814565b80601f01602080910402602001604051908101604052809291908181526020018280546103af90610814565b80156103fc5780601f106103d1576101008083540402835291602001916103fc565b820191906000526020600020905b8154815290600101906020018083116103df57829003601f168201915b5050505050908060020160009054906101000a900473ffffffffffffffffffffffffffffffffffffffff16908060030154905084565b6000604051905090565b600080fd5b600080fd5b600080fd5b600080fd5b6000601f19601f8301169050919050565b7f4e487b7100000000000000000000000000000000000000000000000000000000600052604160045260246000fd5b61049982610450565b810181811067ffffffffffffffff821117156104b8576104b7610461565b5b80604052505050565b60006104cb610432565b90506104d78282610490565b919050565b600067ffffffffffffffff8211156104f7576104f6610461565b5b61050082610450565b9050602081019050919050565b82818337600083830152505050565b600061052f61052a846104dc565b6104c1565b90508281526020810184848401111561054b5761054a61044b565b5b61055684828561050d565b509392505050565b600082601f83011261057357610572610446565b5b813561058384826020860161051c565b91505092915050565b6000602082840312156105a2576105a161043c565b5b600082013567ffffffffffffffff8111156105c0576105bf610441565b5b6105cc8482850161055e565b91505092915050565b6000819050919050565b6105e8816105d5565b82525050565b600060208201905061060360008301846105df565b92915050565b610612816105d5565b811461061d57600080fd5b50565b60008135905061062f81610609565b92915050565b60006020828403121561064b5761064a61043c565b5b600061065984828501610620565b91505092915050565b600081519050919050565b600082825260208201905092915050565b60005b8381101561069c578082015181840152602081019050610681565b60008484015250505050565b60006106b382610662565b6106bd818561066d565b93506106cd81856020860161067e565b6106d681610450565b840191505092915050565b600073ffffffffffffffffffffffffffffffffffffffff82169050919050565b600061070c826106e1565b9050919050565b61071c81610701565b82525050565b600060808201905061073760008301876105df565b818103602083015261074981866106a8565b90506107586040830185610713565b61076560608301846105df565b95945050505050565b7f4e487b7100000000000000000000000000000000000000000000000000000000600052601160045260246000fd5b60006107a8826105d5565b91507fffffffffffffffffffffffffffffffffffffffffffffffffffffffffffffffff82036107da576107d961076e565b5b600182019050919050565b7f4e487b7100000000000000000000000000000000000000000000000000000000600052602260045260246000fd5b6000600282049050600182168061082c57607f821691505b60208210810361083f5761083e6107e5565b5b50919050565b60008190508160005260206000209050919050565b60006020601f8301049050919050565b600082821b905092915050565b6000600883026108a77fffffffffffffffffffffffffffffffffffffffffffffffffffffffffffffffff8261086a565b6108b1868361086a565b95508019841693508086168417925050509392505050565b6000819050919050565b60006108ee6108e96108e4846105d5565b6108c9565b6105d5565b9050919050565b6000819050919050565b610908836108d3565b61091c610914826108f5565b848454610877565b825550505050565b600090565b610931610924565b61093c8184846108ff565b505050565b5b8181101561096057610955600082610929565b600181019050610942565b5050565b601f8211156109a55761097681610845565b61097f8461085a565b8101602085101561098e578190505b6109a261099a8561085a565b830182610941565b50505b505050565b600082821c905092915050565b60006109c8600019846008026109aa565b1980831691505092915050565b60006109e183836109b7565b9150826002028217905092915050565b6109fa82610662565b67ffffffffffffffff811115610a1357610a12610461565b5b610a1d8254610814565b610a28828285610964565b600060209050601f831160018114610a5b5760008415610a49578287015190505b610a5385826109d5565b865550610abb565b601f198416610a6986610845565b60005b82811015610a9157848901518255600182019150602085019450602081019050610a6c565b86831015610aae5784890151610aaa601f8916826109b7565b8355505b6001600288020188555050505b50505050505056fea26469706673582212205e7466a179398191e90322871b2796e944294e43a92151cfd91a3d663e3562c764736f6c634300081c0033",
  "linkReferences": {},
  "deployedLinkReferences": {}
}